{
  "contractName": "TransWattTokenSale",
  "abi": [
    {
      "constant": true,
      "inputs": [],
      "name": "tokensSold",
      "outputs": [
        {
          "name": "",
          "type": "uint256"
        }
      ],
      "payable": false,
      "stateMutability": "view",
      "type": "function",
      "signature": "0x518ab2a8"
    },
    {
      "constant": true,
      "inputs": [],
      "name": "tokenContract",
      "outputs": [
        {
          "name": "",
          "type": "address"
        }
      ],
      "payable": false,
      "stateMutability": "view",
      "type": "function",
      "signature": "0x55a373d6"
    },
    {
      "constant": true,
      "inputs": [],
      "name": "tokenPrice",
      "outputs": [
        {
          "name": "",
          "type": "uint256"
        }
      ],
      "payable": false,
      "stateMutability": "view",
      "type": "function",
      "signature": "0x7ff9b596"
    },
    {
      "inputs": [
        {
          "name": "_tokenContract",
          "type": "address"
        },
        {
          "name": "_tokenPrice",
          "type": "uint256"
        }
      ],
      "payable": false,
      "stateMutability": "nonpayable",
      "type": "constructor",
      "signature": "constructor"
    },
    {
      "anonymous": false,
      "inputs": [
        {
          "indexed": false,
          "name": "_buyer",
          "type": "address"
        },
        {
          "indexed": false,
          "name": "_amount",
          "type": "uint256"
        }
      ],
      "name": "Sell",
      "type": "event",
      "signature": "0x5e5e995ce3133561afceaa51a9a154d5db228cd7525d34df5185582c18d3df09"
    },
    {
      "constant": false,
      "inputs": [
        {
          "name": "_numberOfTokens",
          "type": "uint256"
        }
      ],
      "name": "buyTokens",
      "outputs": [],
      "payable": true,
      "stateMutability": "payable",
      "type": "function",
      "signature": "0x3610724e"
    },
    {
      "constant": false,
      "inputs": [],
      "name": "endSale",
      "outputs": [],
      "payable": false,
      "stateMutability": "nonpayable",
      "type": "function",
      "signature": "0x380d831b"
    }
  ],
  "bytecode": "0x608060405234801561001057600080fd5b506040516040806108328339810180604052604081101561003057600080fd5b810190808051906020019092919080519060200190929190505050336000806101000a81548173ffffffffffffffffffffffffffffffffffffffff021916908373ffffffffffffffffffffffffffffffffffffffff16021790555081600160006101000a81548173ffffffffffffffffffffffffffffffffffffffff021916908373ffffffffffffffffffffffffffffffffffffffff16021790555080600281905550505061074e806100e46000396000f3fe60806040526004361061006d576000357c0100000000000000000000000000000000000000000000000000000000900463ffffffff1680633610724e14610072578063380d831b146100a0578063518ab2a8146100b757806355a373d6146100e25780637ff9b59614610139575b600080fd5b61009e6004803603602081101561008857600080fd5b8101908080359060200190929190505050610164565b005b3480156100ac57600080fd5b506100b561040a565b005b3480156100c357600080fd5b506100cc6106c0565b6040518082815260200191505060405180910390f35b3480156100ee57600080fd5b506100f76106c6565b604051808273ffffffffffffffffffffffffffffffffffffffff1673ffffffffffffffffffffffffffffffffffffffff16815260200191505060405180910390f35b34801561014557600080fd5b5061014e6106ec565b6040518082815260200191505060405180910390f35b610170816002546106f2565b3414151561017d57600080fd5b80600160009054906101000a900473ffffffffffffffffffffffffffffffffffffffff1673ffffffffffffffffffffffffffffffffffffffff166370a08231306040518263ffffffff167c0100000000000000000000000000000000000000000000000000000000028152600401808273ffffffffffffffffffffffffffffffffffffffff1673ffffffffffffffffffffffffffffffffffffffff16815260200191505060206040518083038186803b15801561023957600080fd5b505afa15801561024d573d6000803e3d6000fd5b505050506040513d602081101561026357600080fd5b81019080805190602001909291905050501015151561028157600080fd5b600160009054906101000a900473ffffffffffffffffffffffffffffffffffffffff1673ffffffffffffffffffffffffffffffffffffffff1663a9059cbb33836040518363ffffffff167c0100000000000000000000000000000000000000000000000000000000028152600401808373ffffffffffffffffffffffffffffffffffffffff1673ffffffffffffffffffffffffffffffffffffffff16815260200182815260200192505050602060405180830381600087803b15801561034657600080fd5b505af115801561035a573d6000803e3d6000fd5b505050506040513d602081101561037057600080fd5b8101908080519060200190929190505050151561038c57600080fd5b806003600082825401925050819055507f5e5e995ce3133561afceaa51a9a154d5db228cd7525d34df5185582c18d3df093382604051808373ffffffffffffffffffffffffffffffffffffffff1673ffffffffffffffffffffffffffffffffffffffff1681526020018281526020019250505060405180910390a150565b6000809054906101000a900473ffffffffffffffffffffffffffffffffffffffff1673ffffffffffffffffffffffffffffffffffffffff163373ffffffffffffffffffffffffffffffffffffffff1614151561046557600080fd5b600160009054906101000a900473ffffffffffffffffffffffffffffffffffffffff1673ffffffffffffffffffffffffffffffffffffffff1663a9059cbb6000809054906101000a900473ffffffffffffffffffffffffffffffffffffffff16600160009054906101000a900473ffffffffffffffffffffffffffffffffffffffff1673ffffffffffffffffffffffffffffffffffffffff166370a08231306040518263ffffffff167c0100000000000000000000000000000000000000000000000000000000028152600401808273ffffffffffffffffffffffffffffffffffffffff1673ffffffffffffffffffffffffffffffffffffffff16815260200191505060206040518083038186803b15801561058057600080fd5b505afa158015610594573d6000803e3d6000fd5b505050506040513d60208110156105aa57600080fd5b81019080805190602001909291905050506040518363ffffffff167c0100000000000000000000000000000000000000000000000000000000028152600401808373ffffffffffffffffffffffffffffffffffffffff1673ffffffffffffffffffffffffffffffffffffffff16815260200182815260200192505050602060405180830381600087803b15801561064057600080fd5b505af1158015610654573d6000803e3d6000fd5b505050506040513d602081101561066a57600080fd5b8101908080519060200190929190505050151561068657600080fd5b6000809054906101000a900473ffffffffffffffffffffffffffffffffffffffff1673ffffffffffffffffffffffffffffffffffffffff16ff5b60035481565b600160009054906101000a900473ffffffffffffffffffffffffffffffffffffffff1681565b60025481565b6000808214806107115750828283850292508281151561070e57fe5b04145b151561071c57600080fd5b9291505056fea165627a7a72305820433cc5d6dcd1804ed6f02259bc3bfd7692b2484f6bf3b6ee2977b6d65b275a210029",
  "source": "pragma solidity ^0.5.0;\n\nimport \"./TransWattToken.sol\";\n\ncontract TransWattTokenSale {\n  address payable admin;\n  TransWattToken public tokenContract;\n  uint256 public tokenPrice;\n  uint256 public tokensSold;\n\n  event Sell(address _buyer, uint256 _amount);\n\n  constructor(TransWattToken _tokenContract, uint256 _tokenPrice) public {\n    admin = msg.sender;\n    tokenContract = _tokenContract;\n    tokenPrice = _tokenPrice;\n  }\n\n\n  // multiply\n  function multiply(uint256 x, uint256 y) internal pure returns (uint z) {\n    require(y == 0 || (z = x * y) / y == x);\n  }\n  \n  function buyTokens(uint256 _numberOfTokens) public payable {\n    require(msg.value == multiply(_numberOfTokens,tokenPrice));\n    require(tokenContract.balanceOf(address(this)) >= _numberOfTokens);\n    require(tokenContract.transfer(msg.sender, _numberOfTokens));\n    tokensSold += _numberOfTokens;\n\n    emit Sell(msg.sender, _numberOfTokens);\n  }\n\n  function endSale() public {\n    require(msg.sender == admin);\n    require(tokenContract.transfer(admin, tokenContract.balanceOf(address(this))));\n    // address payable adminAddress = address(uint160(admin));\n    selfdestruct(admin);\n  }\n}\n",
  "sourcePath": "/home/davidh/Documents/TransWatt_blockchain/contracts/TransWattTokenSale.sol",
  "compiler": {
    "name": "solc",
    "version": "0.5.0+commit.1d4f565a.Emscripten.clang"
  },
  "schemaVersion": "3.0.2",
  "updatedAt": "2020-02-19T00:41:27.894Z",
  "devdoc": {
    "methods": {}
  },
  "userdoc": {
    "methods": {}
  }
}